{
  "contractName": "Citizen",
  "abi": [
    {
      "anonymous": false,
      "inputs": [
        {
          "indexed": false,
          "internalType": "address",
          "name": "addressNumber",
          "type": "address"
        },
        {
          "indexed": false,
          "internalType": "string",
          "name": "firstName",
          "type": "string"
        },
        {
          "indexed": false,
          "internalType": "string",
          "name": "lastName",
          "type": "string"
        },
        {
          "indexed": false,
          "internalType": "uint256",
          "name": "dob",
          "type": "uint256"
        },
        {
          "indexed": false,
          "internalType": "enum Citizen.Gender",
          "name": "gender",
          "type": "uint8"
        },
        {
          "indexed": false,
          "internalType": "enum Citizen.Status",
          "name": "status",
          "type": "uint8"
        },
        {
          "indexed": false,
          "internalType": "address",
          "name": "father",
          "type": "address"
        },
        {
          "indexed": false,
          "internalType": "address",
          "name": "mother",
          "type": "address"
        },
        {
          "indexed": false,
          "internalType": "uint256",
          "name": "idNumber",
          "type": "uint256"
        }
      ],
      "name": "NewRegister",
      "type": "event"
    },
    {
      "constant": true,
      "inputs": [],
      "name": "officer",
      "outputs": [
        {
          "internalType": "address",
          "name": "",
          "type": "address"
        }
      ],
      "payable": false,
      "stateMutability": "view",
      "type": "function"
    },
    {
      "constant": true,
      "inputs": [
        {
          "internalType": "address",
          "name": "",
          "type": "address"
        }
      ],
      "name": "peoples",
      "outputs": [
        {
          "internalType": "address",
          "name": "addressNumber",
          "type": "address"
        },
        {
          "internalType": "string",
          "name": "firstName",
          "type": "string"
        },
        {
          "internalType": "string",
          "name": "lastName",
          "type": "string"
        },
        {
          "internalType": "uint256",
          "name": "dob",
          "type": "uint256"
        },
        {
          "internalType": "enum Citizen.Gender",
          "name": "gender",
          "type": "uint8"
        },
        {
          "internalType": "enum Citizen.Status",
          "name": "status",
          "type": "uint8"
        },
        {
          "internalType": "address",
          "name": "father",
          "type": "address"
        },
        {
          "internalType": "address",
          "name": "mother",
          "type": "address"
        },
        {
          "internalType": "uint256",
          "name": "idNumber",
          "type": "uint256"
        }
      ],
      "payable": false,
      "stateMutability": "view",
      "type": "function"
    },
    {
      "constant": false,
      "inputs": [
        {
          "internalType": "address",
          "name": "_address",
          "type": "address"
        },
        {
          "internalType": "string",
          "name": "_firstName",
          "type": "string"
        },
        {
          "internalType": "string",
          "name": "_lastName",
          "type": "string"
        },
        {
          "internalType": "uint256",
          "name": "_dob",
          "type": "uint256"
        },
        {
          "internalType": "enum Citizen.Gender",
          "name": "_gender",
          "type": "uint8"
        },
        {
          "internalType": "enum Citizen.Status",
          "name": "_status",
          "type": "uint8"
        },
        {
          "internalType": "address",
          "name": "_father",
          "type": "address"
        },
        {
          "internalType": "address",
          "name": "_mother",
          "type": "address"
        },
        {
          "internalType": "uint256",
          "name": "_idNumber",
          "type": "uint256"
        }
      ],
      "name": "register",
      "outputs": [],
      "payable": false,
      "stateMutability": "nonpayable",
      "type": "function"
    },
    {
      "constant": false,
      "inputs": [],
      "name": "assignOfficer",
      "outputs": [],
      "payable": false,
      "stateMutability": "nonpayable",
      "type": "function"
    },
    {
      "constant": true,
      "inputs": [
        {
          "internalType": "address",
          "name": "_address",
          "type": "address"
        }
      ],
      "name": "get",
      "outputs": [
        {
          "components": [
            {
              "internalType": "address",
              "name": "addressNumber",
              "type": "address"
            },
            {
              "internalType": "string",
              "name": "firstName",
              "type": "string"
            },
            {
              "internalType": "string",
              "name": "lastName",
              "type": "string"
            },
            {
              "internalType": "uint256",
              "name": "dob",
              "type": "uint256"
            },
            {
              "internalType": "enum Citizen.Gender",
              "name": "gender",
              "type": "uint8"
            },
            {
              "internalType": "enum Citizen.Status",
              "name": "status",
              "type": "uint8"
            },
            {
              "internalType": "address",
              "name": "father",
              "type": "address"
            },
            {
              "internalType": "address",
              "name": "mother",
              "type": "address"
            },
            {
              "internalType": "uint256",
              "name": "idNumber",
              "type": "uint256"
            }
          ],
          "internalType": "struct Citizen.Person",
          "name": "",
          "type": "tuple"
        }
      ],
      "payable": false,
      "stateMutability": "view",
      "type": "function"
    },
    {
      "constant": true,
      "inputs": [
        {
          "internalType": "address",
          "name": "_address",
          "type": "address"
        }
      ],
      "name": "getStatus",
      "outputs": [
        {
          "internalType": "enum Citizen.Status",
          "name": "",
          "type": "uint8"
        }
      ],
      "payable": false,
      "stateMutability": "view",
      "type": "function"
    },
    {
      "constant": true,
      "inputs": [
        {
          "internalType": "address",
          "name": "_address",
          "type": "address"
        }
      ],
      "name": "getParent",
      "outputs": [
        {
          "components": [
            {
              "internalType": "address",
              "name": "addressNumber",
              "type": "address"
            },
            {
              "internalType": "string",
              "name": "firstName",
              "type": "string"
            },
            {
              "internalType": "string",
              "name": "lastName",
              "type": "string"
            },
            {
              "internalType": "uint256",
              "name": "dob",
              "type": "uint256"
            },
            {
              "internalType": "enum Citizen.Gender",
              "name": "gender",
              "type": "uint8"
            },
            {
              "internalType": "enum Citizen.Status",
              "name": "status",
              "type": "uint8"
            },
            {
              "internalType": "address",
              "name": "father",
              "type": "address"
            },
            {
              "internalType": "address",
              "name": "mother",
              "type": "address"
            },
            {
              "internalType": "uint256",
              "name": "idNumber",
              "type": "uint256"
            }
          ],
          "internalType": "struct Citizen.Person",
          "name": "",
          "type": "tuple"
        },
        {
          "components": [
            {
              "internalType": "address",
              "name": "addressNumber",
              "type": "address"
            },
            {
              "internalType": "string",
              "name": "firstName",
              "type": "string"
            },
            {
              "internalType": "string",
              "name": "lastName",
              "type": "string"
            },
            {
              "internalType": "uint256",
              "name": "dob",
              "type": "uint256"
            },
            {
              "internalType": "enum Citizen.Gender",
              "name": "gender",
              "type": "uint8"
            },
            {
              "internalType": "enum Citizen.Status",
              "name": "status",
              "type": "uint8"
            },
            {
              "internalType": "address",
              "name": "father",
              "type": "address"
            },
            {
              "internalType": "address",
              "name": "mother",
              "type": "address"
            },
            {
              "internalType": "uint256",
              "name": "idNumber",
              "type": "uint256"
            }
          ],
          "internalType": "struct Citizen.Person",
          "name": "",
          "type": "tuple"
        }
      ],
      "payable": false,
      "stateMutability": "view",
      "type": "function"
    },
    {
      "constant": false,
      "inputs": [
        {
          "internalType": "address",
          "name": "_address",
          "type": "address"
        },
        {
          "internalType": "string",
          "name": "_firstName",
          "type": "string"
        },
        {
          "internalType": "string",
          "name": "_lastName",
          "type": "string"
        },
        {
          "internalType": "enum Citizen.Status",
          "name": "_status",
          "type": "uint8"
        }
      ],
      "name": "update",
      "outputs": [
        {
          "components": [
            {
              "internalType": "address",
              "name": "addressNumber",
              "type": "address"
            },
            {
              "internalType": "string",
              "name": "firstName",
              "type": "string"
            },
            {
              "internalType": "string",
              "name": "lastName",
              "type": "string"
            },
            {
              "internalType": "uint256",
              "name": "dob",
              "type": "uint256"
            },
            {
              "internalType": "enum Citizen.Gender",
              "name": "gender",
              "type": "uint8"
            },
            {
              "internalType": "enum Citizen.Status",
              "name": "status",
              "type": "uint8"
            },
            {
              "internalType": "address",
              "name": "father",
              "type": "address"
            },
            {
              "internalType": "address",
              "name": "mother",
              "type": "address"
            },
            {
              "internalType": "uint256",
              "name": "idNumber",
              "type": "uint256"
            }
          ],
          "internalType": "struct Citizen.Person",
          "name": "",
          "type": "tuple"
        }
      ],
      "payable": false,
      "stateMutability": "nonpayable",
      "type": "function"
    },
    {
      "constant": true,
      "inputs": [
        {
          "internalType": "string",
          "name": "s1",
          "type": "string"
        }
      ],
      "name": "isEmpty",
      "outputs": [
        {
          "internalType": "bool",
          "name": "",
          "type": "bool"
        }
      ],
      "payable": false,
      "stateMutability": "pure",
      "type": "function"
    },
    {
      "constant": true,
      "inputs": [
        {
          "internalType": "enum Citizen.Status",
          "name": "s1",
          "type": "uint8"
        }
      ],
      "name": "isEmptyStatus",
      "outputs": [
        {
          "internalType": "bool",
          "name": "",
          "type": "bool"
        }
      ],
      "payable": false,
      "stateMutability": "pure",
      "type": "function"
    }
  ],
  "bytecode": "0x608060405234801561001057600080fd5b50611b90806100206000396000f3fe608060405234801561001057600080fd5b506004361061009e5760003560e01c806390e5d8691161006657806390e5d8691461017f578063a940592314610189578063bc685ce0146101ba578063c2bc2efc146101d8578063e152c49a146102085761009e565b806327341c8a146100a357806330ccebb5146100d357806339def42f1461010357806359ce3b0314610133578063818853ef1461014f575b600080fd5b6100bd60048036036100b8919081019061147d565b610240565b6040516100ca91906118b6565b60405180910390f35b6100ed60048036036100e891908101906112a2565b610296565b6040516100fa91906118d1565b60405180910390f35b61011d600480360361011891908101906112cb565b6102ef565b60405161012a91906118ec565b60405180910390f35b61014d6004803603610148919081019061135e565b6106c5565b005b61016960048036036101649190810190611454565b610967565b60405161017691906118b6565b60405180910390f35b6101876109bd565b005b6101a3600480360361019e91908101906112a2565b6109ff565b6040516101b192919061190e565b60405180910390f35b6101c2610b06565b6040516101cf9190611765565b60405180910390f35b6101f260048036036101ed91908101906112a2565b610b2b565b6040516101ff91906118ec565b60405180910390f35b610222600480360361021d91908101906112a2565b610e39565b6040516102379998979695949392919061181b565b60405180910390f35b600060405160200161025190611750565b60405160208183030381529060405280519060200120826040516020016102789190611739565b60405160208183030381529060405280519060200120149050919050565b6000600160008373ffffffffffffffffffffffffffffffffffffffff1673ffffffffffffffffffffffffffffffffffffffff16815260200190815260200160002060040160019054906101000a900460ff169050919050565b6102f7611031565b6000600160008773ffffffffffffffffffffffffffffffffffffffff1673ffffffffffffffffffffffffffffffffffffffff168152602001908152602001600020905061034385610240565b610361578481600101908051906020019061035f9291906110d5565b505b61036a84610240565b61038857838160020190805190602001906103869291906110d5565b505b61039183610967565b6103bb57828160040160016101000a81548160ff021916908360028111156103b557fe5b02179055505b600160008773ffffffffffffffffffffffffffffffffffffffff1673ffffffffffffffffffffffffffffffffffffffff168152602001908152602001600020604051806101200160405290816000820160009054906101000a900473ffffffffffffffffffffffffffffffffffffffff1673ffffffffffffffffffffffffffffffffffffffff1673ffffffffffffffffffffffffffffffffffffffff168152602001600182018054600181600116156101000203166002900480601f0160208091040260200160405190810160405280929190818152602001828054600181600116156101000203166002900480156104f55780601f106104ca576101008083540402835291602001916104f5565b820191906000526020600020905b8154815290600101906020018083116104d857829003601f168201915b50505050508152602001600282018054600181600116156101000203166002900480601f0160208091040260200160405190810160405280929190818152602001828054600181600116156101000203166002900480156105975780601f1061056c57610100808354040283529160200191610597565b820191906000526020600020905b81548152906001019060200180831161057a57829003601f168201915b50505050508152602001600382015481526020016004820160009054906101000a900460ff1660018111156105c857fe5b60018111156105d357fe5b81526020016004820160019054906101000a900460ff1660028111156105f557fe5b600281111561060057fe5b81526020016004820160029054906101000a900473ffffffffffffffffffffffffffffffffffffffff1673ffffffffffffffffffffffffffffffffffffffff1673ffffffffffffffffffffffffffffffffffffffff1681526020016005820160009054906101000a900473ffffffffffffffffffffffffffffffffffffffff1673ffffffffffffffffffffffffffffffffffffffff1673ffffffffffffffffffffffffffffffffffffffff168152602001600682015481525050915050949350505050565b6040518061012001604052808a73ffffffffffffffffffffffffffffffffffffffff16815260200189815260200188815260200187815260200186600181111561070b57fe5b815260200185600281111561071c57fe5b81526020018473ffffffffffffffffffffffffffffffffffffffff1681526020018373ffffffffffffffffffffffffffffffffffffffff16815260200182815250600160008b73ffffffffffffffffffffffffffffffffffffffff1673ffffffffffffffffffffffffffffffffffffffff16815260200190815260200160002060008201518160000160006101000a81548173ffffffffffffffffffffffffffffffffffffffff021916908373ffffffffffffffffffffffffffffffffffffffff16021790555060208201518160010190805190602001906107ff929190611155565b50604082015181600201908051906020019061081c929190611155565b506060820151816003015560808201518160040160006101000a81548160ff0219169083600181111561084b57fe5b021790555060a08201518160040160016101000a81548160ff0219169083600281111561087457fe5b021790555060c08201518160040160026101000a81548173ffffffffffffffffffffffffffffffffffffffff021916908373ffffffffffffffffffffffffffffffffffffffff16021790555060e08201518160050160006101000a81548173ffffffffffffffffffffffffffffffffffffffff021916908373ffffffffffffffffffffffffffffffffffffffff16021790555061010082015181600601559050507f56df48eb3cbf1a0edda99a1b315d3105b58ce26c10c5cc6cb44b4bb609d42b4589898989898989898960405161095499989796959493929190611780565b60405180910390a1505050505050505050565b600060405160200161097890611750565b604051602081830303815290604052805190602001208260405160200161099f919061171e565b60405160208183030381529060405280519060200120149050919050565b336000806101000a81548173ffffffffffffffffffffffffffffffffffffffff021916908373ffffffffffffffffffffffffffffffffffffffff160217905550565b610a07611031565b610a0f611031565b610a17611031565b610a82600160008673ffffffffffffffffffffffffffffffffffffffff1673ffffffffffffffffffffffffffffffffffffffff16815260200190815260200160002060040160029054906101000a900473ffffffffffffffffffffffffffffffffffffffff16610b2b565b9050610a8c611031565b610af7600160008773ffffffffffffffffffffffffffffffffffffffff1673ffffffffffffffffffffffffffffffffffffffff16815260200190815260200160002060050160009054906101000a900473ffffffffffffffffffffffffffffffffffffffff16610b2b565b90508181935093505050915091565b6000809054906101000a900473ffffffffffffffffffffffffffffffffffffffff1681565b610b33611031565b600160008373ffffffffffffffffffffffffffffffffffffffff1673ffffffffffffffffffffffffffffffffffffffff168152602001908152602001600020604051806101200160405290816000820160009054906101000a900473ffffffffffffffffffffffffffffffffffffffff1673ffffffffffffffffffffffffffffffffffffffff1673ffffffffffffffffffffffffffffffffffffffff168152602001600182018054600181600116156101000203166002900480601f016020809104026020016040519081016040528092919081815260200182805460018160011615610100020316600290048015610c6d5780601f10610c4257610100808354040283529160200191610c6d565b820191906000526020600020905b815481529060010190602001808311610c5057829003601f168201915b50505050508152602001600282018054600181600116156101000203166002900480601f016020809104026020016040519081016040528092919081815260200182805460018160011615610100020316600290048015610d0f5780601f10610ce457610100808354040283529160200191610d0f565b820191906000526020600020905b815481529060010190602001808311610cf257829003601f168201915b50505050508152602001600382015481526020016004820160009054906101000a900460ff166001811115610d4057fe5b6001811115610d4b57fe5b81526020016004820160019054906101000a900460ff166002811115610d6d57fe5b6002811115610d7857fe5b81526020016004820160029054906101000a900473ffffffffffffffffffffffffffffffffffffffff1673ffffffffffffffffffffffffffffffffffffffff1673ffffffffffffffffffffffffffffffffffffffff1681526020016005820160009054906101000a900473ffffffffffffffffffffffffffffffffffffffff1673ffffffffffffffffffffffffffffffffffffffff1673ffffffffffffffffffffffffffffffffffffffff1681526020016006820154815250509050919050565b60016020528060005260406000206000915090508060000160009054906101000a900473ffffffffffffffffffffffffffffffffffffffff1690806001018054600181600116156101000203166002900480601f016020809104026020016040519081016040528092919081815260200182805460018160011615610100020316600290048015610f0b5780601f10610ee057610100808354040283529160200191610f0b565b820191906000526020600020905b815481529060010190602001808311610eee57829003601f168201915b505050505090806002018054600181600116156101000203166002900480601f016020809104026020016040519081016040528092919081815260200182805460018160011615610100020316600290048015610fa95780601f10610f7e57610100808354040283529160200191610fa9565b820191906000526020600020905b815481529060010190602001808311610f8c57829003601f168201915b5050505050908060030154908060040160009054906101000a900460ff16908060040160019054906101000a900460ff16908060040160029054906101000a900473ffffffffffffffffffffffffffffffffffffffff16908060050160009054906101000a900473ffffffffffffffffffffffffffffffffffffffff16908060060154905089565b604051806101200160405280600073ffffffffffffffffffffffffffffffffffffffff1681526020016060815260200160608152602001600081526020016000600181111561107c57fe5b81526020016000600281111561108e57fe5b8152602001600073ffffffffffffffffffffffffffffffffffffffff168152602001600073ffffffffffffffffffffffffffffffffffffffff168152602001600081525090565b828054600181600116156101000203166002900490600052602060002090601f016020900481019282601f1061111657805160ff1916838001178555611144565b82800160010185558215611144579182015b82811115611143578251825591602001919060010190611128565b5b50905061115191906111d5565b5090565b828054600181600116156101000203166002900490600052602060002090601f016020900481019282601f1061119657805160ff19168380011785556111c4565b828001600101855582156111c4579182015b828111156111c35782518255916020019190600101906111a8565b5b5090506111d191906111d5565b5090565b6111f791905b808211156111f35760008160009055506001016111db565b5090565b90565b60008135905061120981611aff565b92915050565b60008135905061121e81611b16565b92915050565b60008135905061123381611b26565b92915050565b600082601f83011261124a57600080fd5b813561125d61125882611972565b611945565b9150808252602083016020830185838301111561127957600080fd5b611284838284611a73565b50505092915050565b60008135905061129c81611b36565b92915050565b6000602082840312156112b457600080fd5b60006112c2848285016111fa565b91505092915050565b600080600080608085870312156112e157600080fd5b60006112ef878288016111fa565b945050602085013567ffffffffffffffff81111561130c57600080fd5b61131887828801611239565b935050604085013567ffffffffffffffff81111561133557600080fd5b61134187828801611239565b925050606061135287828801611224565b91505092959194509250565b60008060008060008060008060006101208a8c03121561137d57600080fd5b600061138b8c828d016111fa565b99505060208a013567ffffffffffffffff8111156113a857600080fd5b6113b48c828d01611239565b98505060408a013567ffffffffffffffff8111156113d157600080fd5b6113dd8c828d01611239565b97505060606113ee8c828d0161128d565b96505060806113ff8c828d0161120f565b95505060a06114108c828d01611224565b94505060c06114218c828d016111fa565b93505060e06114328c828d016111fa565b9250506101006114448c828d0161128d565b9150509295985092959850929598565b60006020828403121561146657600080fd5b600061147484828501611224565b91505092915050565b60006020828403121561148f57600080fd5b600082013567ffffffffffffffff8111156114a957600080fd5b6114b584828501611239565b91505092915050565b6114c7816119e1565b82525050565b6114d6816119e1565b82525050565b6114e5816119f3565b82525050565b6114f481611a4f565b82525050565b61150381611a4f565b82525050565b61151281611a61565b82525050565b61152181611a61565b82525050565b61153861153382611a61565b611ab5565b82525050565b6000611549826119a9565b61155381856119c5565b9350611563818560208601611a82565b61156c81611ac7565b840191505092915050565b6000611582826119a9565b61158c81856119d6565b935061159c818560208601611a82565b80840191505092915050565b60006115b38261199e565b6115bd81856119b4565b93506115cd818560208601611a82565b6115d681611ac7565b840191505092915050565b60006115ec8261199e565b6115f681856119c5565b9350611606818560208601611a82565b61160f81611ac7565b840191505092915050565b60006116276000836119d6565b9150600082019050919050565b60006101208301600083015161164d60008601826114be565b506020830151848203602086015261166582826115a8565b9150506040830151848203604086015261167f82826115a8565b91505060608301516116946060860182611700565b5060808301516116a760808601826114eb565b5060a08301516116ba60a0860182611509565b5060c08301516116cd60c08601826114be565b5060e08301516116e060e08601826114be565b506101008301516116f5610100860182611700565b508091505092915050565b61170981611a45565b82525050565b61171881611a45565b82525050565b600061172a8284611527565b60018201915081905092915050565b60006117458284611577565b915081905092915050565b600061175b8261161a565b9150819050919050565b600060208201905061177a60008301846114cd565b92915050565b600061012082019050611796600083018c6114cd565b81810360208301526117a8818b61153e565b905081810360408301526117bc818a61153e565b90506117cb606083018961170f565b6117d860808301886114fa565b6117e560a0830187611518565b6117f260c08301866114cd565b6117ff60e08301856114cd565b61180d61010083018461170f565b9a9950505050505050505050565b600061012082019050611831600083018c6114cd565b8181036020830152611843818b6115e1565b90508181036040830152611857818a6115e1565b9050611866606083018961170f565b61187360808301886114fa565b61188060a0830187611518565b61188d60c08301866114cd565b61189a60e08301856114cd565b6118a861010083018461170f565b9a9950505050505050505050565b60006020820190506118cb60008301846114dc565b92915050565b60006020820190506118e66000830184611518565b92915050565b600060208201905081810360008301526119068184611634565b905092915050565b600060408201905081810360008301526119288185611634565b9050818103602083015261193c8184611634565b90509392505050565b6000604051905081810181811067ffffffffffffffff8211171561196857600080fd5b8060405250919050565b600067ffffffffffffffff82111561198957600080fd5b601f19601f8301169050602081019050919050565b600081519050919050565b600081519050919050565b600082825260208201905092915050565b600082825260208201905092915050565b600081905092915050565b60006119ec82611a25565b9050919050565b60008115159050919050565b6000819050611a0d82611ae5565b919050565b6000819050611a2082611af2565b919050565b600073ffffffffffffffffffffffffffffffffffffffff82169050919050565b6000819050919050565b6000611a5a826119ff565b9050919050565b6000611a6c82611a12565b9050919050565b82818337600083830152505050565b60005b83811015611aa0578082015181840152602081019050611a85565b83811115611aaf576000848401525b50505050565b6000611ac082611ad8565b9050919050565b6000601f19601f8301169050919050565b60008160f81b9050919050565b60028110611aef57fe5b50565b60038110611afc57fe5b50565b611b08816119e1565b8114611b1357600080fd5b50565b60028110611b2357600080fd5b50565b60038110611b3357600080fd5b50565b611b3f81611a45565b8114611b4a57600080fd5b5056fea365627a7a723158207820bfe1cbc826e0ae864b4389d5fd37277f66ef4735d7cd50fe0a6e80a61aff6c6578706572696d656e74616cf564736f6c63430005100040",
  "source": "// SPDX-License-Identifier: MIT\npragma solidity >=0.4.25 <0.9.0;\npragma experimental ABIEncoderV2;\n\n\ncontract Citizen {\n\tevent NewRegister(address addressNumber, \n\tstring firstName, \n\tstring lastName,\n\tuint dob, \n\tGender gender, \n\tStatus status, \n\taddress father, \n\taddress mother, \n\tuint idNumber);\n\n\taddress public officer;\n\n\tenum Status { live, dead, meff }\n\tenum Gender { Male, Female }\n\n\tstruct Person {\n\t\taddress addressNumber; \n\t\tstring firstName; \n\t\tstring lastName;\n\t\tuint dob; \n\t\tGender gender; \n\t\tStatus status; \n\t\taddress father; \n\t\taddress mother; \n\t\tuint idNumber;\n\t}\n\n\tmapping(address => Person) public peoples;\n\n\tfunction register(address _address, \n\t\tstring memory _firstName, \n\t\tstring memory _lastName,\n\t\tuint _dob, \n\t\tGender _gender, \n\t\tStatus _status, \n\t\taddress _father, \n\t\taddress _mother, \n\t\tuint _idNumber\n\t) public {\n\t\tpeoples[_address] = Person(_address, _firstName, _lastName, _dob, _gender, _status, _father, _mother, _idNumber);\n\t\temit NewRegister(_address, _firstName, _lastName, _dob, _gender, _status, _father, _mother, _idNumber);\n\t}\n\n\tfunction assignOfficer() public {\n\t\tofficer = msg.sender;\n\t}\n\n\tfunction get(address _address) public view returns (Person memory){\n\t\treturn peoples[_address];\n\t}\n\n\tfunction getStatus(address _address) public view returns (Status) {\n\t\treturn peoples[_address].status;\n\t}\n\n\tfunction getParent(address _address) public view returns (Person memory, Person memory) {\n\t \tPerson memory father = get(peoples[_address].father);\n\t\tPerson memory mother = get(peoples[_address].mother);\n\t\treturn (father, mother);\n\t}\n\n\tfunction update(address _address, \n\t\tstring memory _firstName, \n\t\tstring memory _lastName,\n\t\tStatus _status\n\t) public returns (Person memory) {\n\t\tPerson storage person = peoples[_address];\n\t\tif (!isEmpty(_firstName)) { person.firstName = _firstName; }\n\t\tif (!isEmpty(_lastName)) { person.lastName = _lastName; }\n\t\tif (!isEmptyStatus(_status)) { person.status = _status; }\n\t\t\n\t\treturn peoples[_address];\n\t}\n\n\tfunction isEmpty(string memory s1) public pure returns(bool){\n\t\treturn keccak256(abi.encodePacked(s1)) == keccak256(abi.encodePacked(\"\"));\n\t}\n\n\tfunction isEmptyStatus(Status s1) public pure returns(bool){\n\t\treturn keccak256(abi.encodePacked(s1)) == keccak256(abi.encodePacked(\"\"));\n\t}\n\n}\n",
  "sourcePath": "/Users/gun/poc/ln-citizen/contracts/Citizen.sol",
  "compiler": {
    "name": "solc",
    "version": "0.5.16+commit.9c3226ce.Emscripten.clang"
  },
  "schemaVersion": "3.3.4",
  "updatedAt": "2021-03-05T05:31:36.319Z",
  "networkType": "ethereum",
  "devdoc": {
    "methods": {}
  },
  "userdoc": {
    "methods": {}
  }
}