{
  "contractName": "Citizen",
  "abi": [
    {
      "anonymous": false,
      "inputs": [
        {
          "indexed": false,
          "internalType": "address",
          "name": "addressNumber",
          "type": "address"
        },
        {
          "indexed": false,
          "internalType": "string",
          "name": "firstName",
          "type": "string"
        },
        {
          "indexed": false,
          "internalType": "string",
          "name": "lastName",
          "type": "string"
        },
        {
          "indexed": false,
          "internalType": "uint256",
          "name": "dob",
          "type": "uint256"
        },
        {
          "indexed": false,
          "internalType": "enum Citizen.Gender",
          "name": "gender",
          "type": "uint8"
        },
        {
          "indexed": false,
          "internalType": "enum Citizen.Status",
          "name": "status",
          "type": "uint8"
        },
        {
          "indexed": false,
          "internalType": "address",
          "name": "father",
          "type": "address"
        },
        {
          "indexed": false,
          "internalType": "address",
          "name": "mother",
          "type": "address"
        },
        {
          "indexed": false,
          "internalType": "uint256",
          "name": "idNumber",
          "type": "uint256"
        }
      ],
      "name": "NewRegister",
      "type": "event"
    },
    {
      "constant": true,
      "inputs": [],
      "name": "officer",
      "outputs": [
        {
          "internalType": "address",
          "name": "",
          "type": "address"
        }
      ],
      "payable": false,
      "stateMutability": "view",
      "type": "function"
    },
    {
      "constant": true,
      "inputs": [
        {
          "internalType": "address",
          "name": "",
          "type": "address"
        }
      ],
      "name": "peoples",
      "outputs": [
        {
          "internalType": "address",
          "name": "addressNumber",
          "type": "address"
        },
        {
          "internalType": "string",
          "name": "firstName",
          "type": "string"
        },
        {
          "internalType": "string",
          "name": "lastName",
          "type": "string"
        },
        {
          "internalType": "uint256",
          "name": "dob",
          "type": "uint256"
        },
        {
          "internalType": "enum Citizen.Gender",
          "name": "gender",
          "type": "uint8"
        },
        {
          "internalType": "enum Citizen.Status",
          "name": "status",
          "type": "uint8"
        },
        {
          "internalType": "address",
          "name": "father",
          "type": "address"
        },
        {
          "internalType": "address",
          "name": "mother",
          "type": "address"
        },
        {
          "internalType": "uint256",
          "name": "idNumber",
          "type": "uint256"
        }
      ],
      "payable": false,
      "stateMutability": "view",
      "type": "function"
    },
    {
      "constant": false,
      "inputs": [
        {
          "internalType": "address",
          "name": "_address",
          "type": "address"
        },
        {
          "internalType": "string",
          "name": "_firstName",
          "type": "string"
        },
        {
          "internalType": "string",
          "name": "_lastName",
          "type": "string"
        },
        {
          "internalType": "uint256",
          "name": "_dob",
          "type": "uint256"
        },
        {
          "internalType": "enum Citizen.Gender",
          "name": "_gender",
          "type": "uint8"
        },
        {
          "internalType": "enum Citizen.Status",
          "name": "_status",
          "type": "uint8"
        },
        {
          "internalType": "address",
          "name": "_father",
          "type": "address"
        },
        {
          "internalType": "address",
          "name": "_mother",
          "type": "address"
        },
        {
          "internalType": "uint256",
          "name": "_idNumber",
          "type": "uint256"
        }
      ],
      "name": "register",
      "outputs": [],
      "payable": false,
      "stateMutability": "nonpayable",
      "type": "function"
    },
    {
      "constant": false,
      "inputs": [],
      "name": "assignOfficer",
      "outputs": [],
      "payable": false,
      "stateMutability": "nonpayable",
      "type": "function"
    },
    {
      "constant": true,
      "inputs": [
        {
          "internalType": "address",
          "name": "_address",
          "type": "address"
        }
      ],
      "name": "get",
      "outputs": [
        {
          "components": [
            {
              "internalType": "address",
              "name": "addressNumber",
              "type": "address"
            },
            {
              "internalType": "string",
              "name": "firstName",
              "type": "string"
            },
            {
              "internalType": "string",
              "name": "lastName",
              "type": "string"
            },
            {
              "internalType": "uint256",
              "name": "dob",
              "type": "uint256"
            },
            {
              "internalType": "enum Citizen.Gender",
              "name": "gender",
              "type": "uint8"
            },
            {
              "internalType": "enum Citizen.Status",
              "name": "status",
              "type": "uint8"
            },
            {
              "internalType": "address",
              "name": "father",
              "type": "address"
            },
            {
              "internalType": "address",
              "name": "mother",
              "type": "address"
            },
            {
              "internalType": "uint256",
              "name": "idNumber",
              "type": "uint256"
            }
          ],
          "internalType": "struct Citizen.Person",
          "name": "",
          "type": "tuple"
        }
      ],
      "payable": false,
      "stateMutability": "view",
      "type": "function"
    },
    {
      "constant": true,
      "inputs": [
        {
          "internalType": "address",
          "name": "_address",
          "type": "address"
        }
      ],
      "name": "getStatus",
      "outputs": [
        {
          "internalType": "enum Citizen.Status",
          "name": "",
          "type": "uint8"
        }
      ],
      "payable": false,
      "stateMutability": "view",
      "type": "function"
    },
    {
      "constant": true,
      "inputs": [
        {
          "internalType": "address",
          "name": "_address",
          "type": "address"
        }
      ],
      "name": "getParent",
      "outputs": [
        {
          "components": [
            {
              "internalType": "address",
              "name": "addressNumber",
              "type": "address"
            },
            {
              "internalType": "string",
              "name": "firstName",
              "type": "string"
            },
            {
              "internalType": "string",
              "name": "lastName",
              "type": "string"
            },
            {
              "internalType": "uint256",
              "name": "dob",
              "type": "uint256"
            },
            {
              "internalType": "enum Citizen.Gender",
              "name": "gender",
              "type": "uint8"
            },
            {
              "internalType": "enum Citizen.Status",
              "name": "status",
              "type": "uint8"
            },
            {
              "internalType": "address",
              "name": "father",
              "type": "address"
            },
            {
              "internalType": "address",
              "name": "mother",
              "type": "address"
            },
            {
              "internalType": "uint256",
              "name": "idNumber",
              "type": "uint256"
            }
          ],
          "internalType": "struct Citizen.Person",
          "name": "",
          "type": "tuple"
        },
        {
          "components": [
            {
              "internalType": "address",
              "name": "addressNumber",
              "type": "address"
            },
            {
              "internalType": "string",
              "name": "firstName",
              "type": "string"
            },
            {
              "internalType": "string",
              "name": "lastName",
              "type": "string"
            },
            {
              "internalType": "uint256",
              "name": "dob",
              "type": "uint256"
            },
            {
              "internalType": "enum Citizen.Gender",
              "name": "gender",
              "type": "uint8"
            },
            {
              "internalType": "enum Citizen.Status",
              "name": "status",
              "type": "uint8"
            },
            {
              "internalType": "address",
              "name": "father",
              "type": "address"
            },
            {
              "internalType": "address",
              "name": "mother",
              "type": "address"
            },
            {
              "internalType": "uint256",
              "name": "idNumber",
              "type": "uint256"
            }
          ],
          "internalType": "struct Citizen.Person",
          "name": "",
          "type": "tuple"
        }
      ],
      "payable": false,
      "stateMutability": "view",
      "type": "function"
    },
    {
      "constant": false,
      "inputs": [
        {
          "internalType": "address",
          "name": "_address",
          "type": "address"
        },
        {
          "internalType": "string",
          "name": "_firstName",
          "type": "string"
        },
        {
          "internalType": "string",
          "name": "_lastName",
          "type": "string"
        },
        {
          "internalType": "enum Citizen.Status",
          "name": "_status",
          "type": "uint8"
        }
      ],
      "name": "update",
      "outputs": [
        {
          "components": [
            {
              "internalType": "address",
              "name": "addressNumber",
              "type": "address"
            },
            {
              "internalType": "string",
              "name": "firstName",
              "type": "string"
            },
            {
              "internalType": "string",
              "name": "lastName",
              "type": "string"
            },
            {
              "internalType": "uint256",
              "name": "dob",
              "type": "uint256"
            },
            {
              "internalType": "enum Citizen.Gender",
              "name": "gender",
              "type": "uint8"
            },
            {
              "internalType": "enum Citizen.Status",
              "name": "status",
              "type": "uint8"
            },
            {
              "internalType": "address",
              "name": "father",
              "type": "address"
            },
            {
              "internalType": "address",
              "name": "mother",
              "type": "address"
            },
            {
              "internalType": "uint256",
              "name": "idNumber",
              "type": "uint256"
            }
          ],
          "internalType": "struct Citizen.Person",
          "name": "",
          "type": "tuple"
        }
      ],
      "payable": false,
      "stateMutability": "nonpayable",
      "type": "function"
    },
    {
      "constant": true,
      "inputs": [
        {
          "internalType": "string",
          "name": "s1",
          "type": "string"
        }
      ],
      "name": "isEmpty",
      "outputs": [
        {
          "internalType": "bool",
          "name": "",
          "type": "bool"
        }
      ],
      "payable": false,
      "stateMutability": "pure",
      "type": "function"
    },
    {
      "constant": true,
      "inputs": [
        {
          "internalType": "enum Citizen.Status",
          "name": "s1",
          "type": "uint8"
        }
      ],
      "name": "isEmptyStatus",
      "outputs": [
        {
          "internalType": "bool",
          "name": "",
          "type": "bool"
        }
      ],
      "payable": false,
      "stateMutability": "pure",
      "type": "function"
    }
  ],
  "bytecode": "0x608060405234801561001057600080fd5b50611d0e806100206000396000f3fe608060405234801561001057600080fd5b506004361061009e5760003560e01c806390e5d8691161006657806390e5d8691461017f578063a940592314610189578063bc685ce0146101ba578063c2bc2efc146101d8578063e152c49a146102085761009e565b806327341c8a146100a357806330ccebb5146100d357806339def42f1461010357806359ce3b0314610133578063818853ef1461014f575b600080fd5b6100bd60048036036100b8919081019061159b565b610240565b6040516100ca9190611a14565b60405180910390f35b6100ed60048036036100e891908101906113c0565b610296565b6040516100fa9190611a2f565b60405180910390f35b61011d600480360361011891908101906113e9565b6102ef565b60405161012a9190611a6a565b60405180910390f35b61014d6004803603610148919081019061147c565b610754565b005b61016960048036036101649190810190611572565b610a85565b6040516101769190611a14565b60405180910390f35b610187610adb565b005b6101a3600480360361019e91908101906113c0565b610b1d565b6040516101b1929190611a8c565b60405180910390f35b6101c2610c24565b6040516101cf91906118c3565b60405180910390f35b6101f260048036036101ed91908101906113c0565b610c49565b6040516101ff9190611a6a565b60405180910390f35b610222600480360361021d91908101906113c0565b610f57565b60405161023799989796959493929190611979565b60405180910390f35b6000604051602001610251906118ae565b60405160208183030381529060405280519060200120826040516020016102789190611897565b60405160208183030381529060405280519060200120149050919050565b6000600160008373ffffffffffffffffffffffffffffffffffffffff1673ffffffffffffffffffffffffffffffffffffffff16815260200190815260200160002060040160019054906101000a900460ff169050919050565b6102f761114f565b6000809054906101000a900473ffffffffffffffffffffffffffffffffffffffff1673ffffffffffffffffffffffffffffffffffffffff163373ffffffffffffffffffffffffffffffffffffffff1614610386576040517f08c379a000000000000000000000000000000000000000000000000000000000815260040161037d90611a4a565b60405180910390fd5b6000600160008773ffffffffffffffffffffffffffffffffffffffff1673ffffffffffffffffffffffffffffffffffffffff16815260200190815260200160002090506103d285610240565b6103f057848160010190805190602001906103ee9291906111f3565b505b6103f984610240565b61041757838160020190805190602001906104159291906111f3565b505b61042083610a85565b61044a57828160040160016101000a81548160ff0219169083600281111561044457fe5b02179055505b600160008773ffffffffffffffffffffffffffffffffffffffff1673ffffffffffffffffffffffffffffffffffffffff168152602001908152602001600020604051806101200160405290816000820160009054906101000a900473ffffffffffffffffffffffffffffffffffffffff1673ffffffffffffffffffffffffffffffffffffffff1673ffffffffffffffffffffffffffffffffffffffff168152602001600182018054600181600116156101000203166002900480601f0160208091040260200160405190810160405280929190818152602001828054600181600116156101000203166002900480156105845780601f1061055957610100808354040283529160200191610584565b820191906000526020600020905b81548152906001019060200180831161056757829003601f168201915b50505050508152602001600282018054600181600116156101000203166002900480601f0160208091040260200160405190810160405280929190818152602001828054600181600116156101000203166002900480156106265780601f106105fb57610100808354040283529160200191610626565b820191906000526020600020905b81548152906001019060200180831161060957829003601f168201915b50505050508152602001600382015481526020016004820160009054906101000a900460ff16600181111561065757fe5b600181111561066257fe5b81526020016004820160019054906101000a900460ff16600281111561068457fe5b600281111561068f57fe5b81526020016004820160029054906101000a900473ffffffffffffffffffffffffffffffffffffffff1673ffffffffffffffffffffffffffffffffffffffff1673ffffffffffffffffffffffffffffffffffffffff1681526020016005820160009054906101000a900473ffffffffffffffffffffffffffffffffffffffff1673ffffffffffffffffffffffffffffffffffffffff1673ffffffffffffffffffffffffffffffffffffffff168152602001600682015481525050915050949350505050565b6000809054906101000a900473ffffffffffffffffffffffffffffffffffffffff1673ffffffffffffffffffffffffffffffffffffffff163373ffffffffffffffffffffffffffffffffffffffff16146107e3576040517f08c379a00000000000000000000000000000000000000000000000000000000081526004016107da90611a4a565b60405180910390fd5b6040518061012001604052808a73ffffffffffffffffffffffffffffffffffffffff16815260200189815260200188815260200187815260200186600181111561082957fe5b815260200185600281111561083a57fe5b81526020018473ffffffffffffffffffffffffffffffffffffffff1681526020018373ffffffffffffffffffffffffffffffffffffffff16815260200182815250600160008b73ffffffffffffffffffffffffffffffffffffffff1673ffffffffffffffffffffffffffffffffffffffff16815260200190815260200160002060008201518160000160006101000a81548173ffffffffffffffffffffffffffffffffffffffff021916908373ffffffffffffffffffffffffffffffffffffffff160217905550602082015181600101908051906020019061091d929190611273565b50604082015181600201908051906020019061093a929190611273565b506060820151816003015560808201518160040160006101000a81548160ff0219169083600181111561096957fe5b021790555060a08201518160040160016101000a81548160ff0219169083600281111561099257fe5b021790555060c08201518160040160026101000a81548173ffffffffffffffffffffffffffffffffffffffff021916908373ffffffffffffffffffffffffffffffffffffffff16021790555060e08201518160050160006101000a81548173ffffffffffffffffffffffffffffffffffffffff021916908373ffffffffffffffffffffffffffffffffffffffff16021790555061010082015181600601559050507f56df48eb3cbf1a0edda99a1b315d3105b58ce26c10c5cc6cb44b4bb609d42b45898989898989898989604051610a72999897969594939291906118de565b60405180910390a1505050505050505050565b6000604051602001610a96906118ae565b6040516020818303038152906040528051906020012082604051602001610abd919061187c565b60405160208183030381529060405280519060200120149050919050565b336000806101000a81548173ffffffffffffffffffffffffffffffffffffffff021916908373ffffffffffffffffffffffffffffffffffffffff160217905550565b610b2561114f565b610b2d61114f565b610b3561114f565b610ba0600160008673ffffffffffffffffffffffffffffffffffffffff1673ffffffffffffffffffffffffffffffffffffffff16815260200190815260200160002060040160029054906101000a900473ffffffffffffffffffffffffffffffffffffffff16610c49565b9050610baa61114f565b610c15600160008773ffffffffffffffffffffffffffffffffffffffff1673ffffffffffffffffffffffffffffffffffffffff16815260200190815260200160002060050160009054906101000a900473ffffffffffffffffffffffffffffffffffffffff16610c49565b90508181935093505050915091565b6000809054906101000a900473ffffffffffffffffffffffffffffffffffffffff1681565b610c5161114f565b600160008373ffffffffffffffffffffffffffffffffffffffff1673ffffffffffffffffffffffffffffffffffffffff168152602001908152602001600020604051806101200160405290816000820160009054906101000a900473ffffffffffffffffffffffffffffffffffffffff1673ffffffffffffffffffffffffffffffffffffffff1673ffffffffffffffffffffffffffffffffffffffff168152602001600182018054600181600116156101000203166002900480601f016020809104026020016040519081016040528092919081815260200182805460018160011615610100020316600290048015610d8b5780601f10610d6057610100808354040283529160200191610d8b565b820191906000526020600020905b815481529060010190602001808311610d6e57829003601f168201915b50505050508152602001600282018054600181600116156101000203166002900480601f016020809104026020016040519081016040528092919081815260200182805460018160011615610100020316600290048015610e2d5780601f10610e0257610100808354040283529160200191610e2d565b820191906000526020600020905b815481529060010190602001808311610e1057829003601f168201915b50505050508152602001600382015481526020016004820160009054906101000a900460ff166001811115610e5e57fe5b6001811115610e6957fe5b81526020016004820160019054906101000a900460ff166002811115610e8b57fe5b6002811115610e9657fe5b81526020016004820160029054906101000a900473ffffffffffffffffffffffffffffffffffffffff1673ffffffffffffffffffffffffffffffffffffffff1673ffffffffffffffffffffffffffffffffffffffff1681526020016005820160009054906101000a900473ffffffffffffffffffffffffffffffffffffffff1673ffffffffffffffffffffffffffffffffffffffff1673ffffffffffffffffffffffffffffffffffffffff1681526020016006820154815250509050919050565b60016020528060005260406000206000915090508060000160009054906101000a900473ffffffffffffffffffffffffffffffffffffffff1690806001018054600181600116156101000203166002900480601f0160208091040260200160405190810160405280929190818152602001828054600181600116156101000203166002900480156110295780601f10610ffe57610100808354040283529160200191611029565b820191906000526020600020905b81548152906001019060200180831161100c57829003601f168201915b505050505090806002018054600181600116156101000203166002900480601f0160208091040260200160405190810160405280929190818152602001828054600181600116156101000203166002900480156110c75780601f1061109c576101008083540402835291602001916110c7565b820191906000526020600020905b8154815290600101906020018083116110aa57829003601f168201915b5050505050908060030154908060040160009054906101000a900460ff16908060040160019054906101000a900460ff16908060040160029054906101000a900473ffffffffffffffffffffffffffffffffffffffff16908060050160009054906101000a900473ffffffffffffffffffffffffffffffffffffffff16908060060154905089565b604051806101200160405280600073ffffffffffffffffffffffffffffffffffffffff1681526020016060815260200160608152602001600081526020016000600181111561119a57fe5b8152602001600060028111156111ac57fe5b8152602001600073ffffffffffffffffffffffffffffffffffffffff168152602001600073ffffffffffffffffffffffffffffffffffffffff168152602001600081525090565b828054600181600116156101000203166002900490600052602060002090601f016020900481019282601f1061123457805160ff1916838001178555611262565b82800160010185558215611262579182015b82811115611261578251825591602001919060010190611246565b5b50905061126f91906112f3565b5090565b828054600181600116156101000203166002900490600052602060002090601f016020900481019282601f106112b457805160ff19168380011785556112e2565b828001600101855582156112e2579182015b828111156112e15782518255916020019190600101906112c6565b5b5090506112ef91906112f3565b5090565b61131591905b808211156113115760008160009055506001016112f9565b5090565b90565b60008135905061132781611c7d565b92915050565b60008135905061133c81611c94565b92915050565b60008135905061135181611ca4565b92915050565b600082601f83011261136857600080fd5b813561137b61137682611af0565b611ac3565b9150808252602083016020830185838301111561139757600080fd5b6113a2838284611bf1565b50505092915050565b6000813590506113ba81611cb4565b92915050565b6000602082840312156113d257600080fd5b60006113e084828501611318565b91505092915050565b600080600080608085870312156113ff57600080fd5b600061140d87828801611318565b945050602085013567ffffffffffffffff81111561142a57600080fd5b61143687828801611357565b935050604085013567ffffffffffffffff81111561145357600080fd5b61145f87828801611357565b925050606061147087828801611342565b91505092959194509250565b60008060008060008060008060006101208a8c03121561149b57600080fd5b60006114a98c828d01611318565b99505060208a013567ffffffffffffffff8111156114c657600080fd5b6114d28c828d01611357565b98505060408a013567ffffffffffffffff8111156114ef57600080fd5b6114fb8c828d01611357565b975050606061150c8c828d016113ab565b965050608061151d8c828d0161132d565b95505060a061152e8c828d01611342565b94505060c061153f8c828d01611318565b93505060e06115508c828d01611318565b9250506101006115628c828d016113ab565b9150509295985092959850929598565b60006020828403121561158457600080fd5b600061159284828501611342565b91505092915050565b6000602082840312156115ad57600080fd5b600082013567ffffffffffffffff8111156115c757600080fd5b6115d384828501611357565b91505092915050565b6115e581611b5f565b82525050565b6115f481611b5f565b82525050565b61160381611b71565b82525050565b61161281611bcd565b82525050565b61162181611bcd565b82525050565b61163081611bdf565b82525050565b61163f81611bdf565b82525050565b61165661165182611bdf565b611c33565b82525050565b600061166782611b27565b6116718185611b43565b9350611681818560208601611c00565b61168a81611c45565b840191505092915050565b60006116a082611b27565b6116aa8185611b54565b93506116ba818560208601611c00565b80840191505092915050565b60006116d182611b1c565b6116db8185611b32565b93506116eb818560208601611c00565b6116f481611c45565b840191505092915050565b600061170a82611b1c565b6117148185611b43565b9350611724818560208601611c00565b61172d81611c45565b840191505092915050565b6000611745600c83611b43565b91507f556e617574686f72697a656400000000000000000000000000000000000000006000830152602082019050919050565b6000611785600083611b54565b9150600082019050919050565b6000610120830160008301516117ab60008601826115dc565b50602083015184820360208601526117c382826116c6565b915050604083015184820360408601526117dd82826116c6565b91505060608301516117f2606086018261185e565b5060808301516118056080860182611609565b5060a083015161181860a0860182611627565b5060c083015161182b60c08601826115dc565b5060e083015161183e60e08601826115dc565b5061010083015161185361010086018261185e565b508091505092915050565b61186781611bc3565b82525050565b61187681611bc3565b82525050565b60006118888284611645565b60018201915081905092915050565b60006118a38284611695565b915081905092915050565b60006118b982611778565b9150819050919050565b60006020820190506118d860008301846115eb565b92915050565b6000610120820190506118f4600083018c6115eb565b8181036020830152611906818b61165c565b9050818103604083015261191a818a61165c565b9050611929606083018961186d565b6119366080830188611618565b61194360a0830187611636565b61195060c08301866115eb565b61195d60e08301856115eb565b61196b61010083018461186d565b9a9950505050505050505050565b60006101208201905061198f600083018c6115eb565b81810360208301526119a1818b6116ff565b905081810360408301526119b5818a6116ff565b90506119c4606083018961186d565b6119d16080830188611618565b6119de60a0830187611636565b6119eb60c08301866115eb565b6119f860e08301856115eb565b611a0661010083018461186d565b9a9950505050505050505050565b6000602082019050611a2960008301846115fa565b92915050565b6000602082019050611a446000830184611636565b92915050565b60006020820190508181036000830152611a6381611738565b9050919050565b60006020820190508181036000830152611a848184611792565b905092915050565b60006040820190508181036000830152611aa68185611792565b90508181036020830152611aba8184611792565b90509392505050565b6000604051905081810181811067ffffffffffffffff82111715611ae657600080fd5b8060405250919050565b600067ffffffffffffffff821115611b0757600080fd5b601f19601f8301169050602081019050919050565b600081519050919050565b600081519050919050565b600082825260208201905092915050565b600082825260208201905092915050565b600081905092915050565b6000611b6a82611ba3565b9050919050565b60008115159050919050565b6000819050611b8b82611c63565b919050565b6000819050611b9e82611c70565b919050565b600073ffffffffffffffffffffffffffffffffffffffff82169050919050565b6000819050919050565b6000611bd882611b7d565b9050919050565b6000611bea82611b90565b9050919050565b82818337600083830152505050565b60005b83811015611c1e578082015181840152602081019050611c03565b83811115611c2d576000848401525b50505050565b6000611c3e82611c56565b9050919050565b6000601f19601f8301169050919050565b60008160f81b9050919050565b60028110611c6d57fe5b50565b60038110611c7a57fe5b50565b611c8681611b5f565b8114611c9157600080fd5b50565b60028110611ca157600080fd5b50565b60038110611cb157600080fd5b50565b611cbd81611bc3565b8114611cc857600080fd5b5056fea365627a7a72315820ddd73b390b4cc46a3a37aedee5b03f0e488d0bd7651a080b532d6b1ec51e5fdf6c6578706572696d656e74616cf564736f6c63430005100040",
  "source": "// SPDX-License-Identifier: MIT\npragma solidity >=0.4.25 <0.9.0;\npragma experimental ABIEncoderV2;\n\n\ncontract Citizen {\n\tevent NewRegister(address addressNumber, \n\tstring firstName, \n\tstring lastName,\n\tuint dob, \n\tGender gender, \n\tStatus status, \n\taddress father, \n\taddress mother, \n\tuint idNumber);\n\n\taddress public officer;\n\n\tenum Status { live, dead, meff }\n\tenum Gender { Male, Female }\n\n\tstruct Person {\n\t\taddress addressNumber; \n\t\tstring firstName; \n\t\tstring lastName;\n\t\tuint dob; \n\t\tGender gender; \n\t\tStatus status; \n\t\taddress father; \n\t\taddress mother; \n\t\tuint idNumber;\n\t}\n\n\tmapping(address => Person) public peoples;\n\n\tfunction register(address _address, \n\t\tstring memory _firstName, \n\t\tstring memory _lastName,\n\t\tuint _dob, \n\t\tGender _gender, \n\t\tStatus _status, \n\t\taddress _father, \n\t\taddress _mother, \n\t\tuint _idNumber\n\t) public {\n\t\trequire(msg.sender == officer, \"Unauthorized\");\n\t\tpeoples[_address] = Person(_address, _firstName, _lastName, _dob, _gender, _status, _father, _mother, _idNumber);\n\t\temit NewRegister(_address, _firstName, _lastName, _dob, _gender, _status, _father, _mother, _idNumber);\n\t}\n\n\tfunction assignOfficer() public {\n\t\tofficer = msg.sender;\n\t}\n\n\tfunction get(address _address) public view returns (Person memory){\n\t\treturn peoples[_address];\n\t}\n\n\tfunction getStatus(address _address) public view returns (Status) {\n\t\treturn peoples[_address].status;\n\t}\n\n\tfunction getParent(address _address) public view returns (Person memory, Person memory) {\n\t \tPerson memory father = get(peoples[_address].father);\n\t\tPerson memory mother = get(peoples[_address].mother);\n\t\treturn (father, mother);\n\t}\n\n\tfunction update(address _address, \n\t\tstring memory _firstName, \n\t\tstring memory _lastName,\n\t\tStatus _status\n\t) public returns (Person memory) {\n\t\trequire(msg.sender == officer, \"Unauthorized\");\n\t\tPerson storage person = peoples[_address];\n\t\tif (!isEmpty(_firstName)) { person.firstName = _firstName; }\n\t\tif (!isEmpty(_lastName)) { person.lastName = _lastName; }\n\t\tif (!isEmptyStatus(_status)) { person.status = _status; }\n\t\t\n\t\treturn peoples[_address];\n\t}\n\n\tfunction isEmpty(string memory s1) public pure returns(bool){\n\t\treturn keccak256(abi.encodePacked(s1)) == keccak256(abi.encodePacked(\"\"));\n\t}\n\n\tfunction isEmptyStatus(Status s1) public pure returns(bool){\n\t\treturn keccak256(abi.encodePacked(s1)) == keccak256(abi.encodePacked(\"\"));\n\t}\n\n}\n",
  "sourcePath": "/Users/gun/poc/ln-citizen/contracts/Citizen.sol",
  "compiler": {
    "name": "solc",
    "version": "0.5.16+commit.9c3226ce.Emscripten.clang"
  },
  "schemaVersion": "3.3.4",
  "updatedAt": "2021-03-04T11:00:02.284Z",
  "networkType": "ethereum",
  "devdoc": {
    "methods": {}
  },
  "userdoc": {
    "methods": {}
  }
}