{
  "contractName": "MetaCoin",
  "abi": [
    {
      "inputs": [],
      "payable": false,
      "stateMutability": "nonpayable",
      "type": "constructor"
    },
    {
      "anonymous": false,
      "inputs": [
        {
          "indexed": true,
          "internalType": "address",
          "name": "_from",
          "type": "address"
        },
        {
          "indexed": true,
          "internalType": "address",
          "name": "_to",
          "type": "address"
        },
        {
          "indexed": false,
          "internalType": "uint256",
          "name": "_value",
          "type": "uint256"
        }
      ],
      "name": "Transfer",
      "type": "event"
    },
    {
      "constant": true,
      "inputs": [
        {
          "internalType": "uint256",
          "name": "",
          "type": "uint256"
        }
      ],
      "name": "citizenIds",
      "outputs": [
        {
          "internalType": "uint256",
          "name": "",
          "type": "uint256"
        }
      ],
      "payable": false,
      "stateMutability": "view",
      "type": "function"
    },
    {
      "constant": false,
      "inputs": [
        {
          "internalType": "uint256",
          "name": "id",
          "type": "uint256"
        },
        {
          "internalType": "string",
          "name": "name",
          "type": "string"
        },
        {
          "internalType": "string",
          "name": "birthdate",
          "type": "string"
        }
      ],
      "name": "registerCitizen",
      "outputs": [],
      "payable": false,
      "stateMutability": "nonpayable",
      "type": "function"
    },
    {
      "constant": true,
      "inputs": [
        {
          "internalType": "uint256",
          "name": "id",
          "type": "uint256"
        }
      ],
      "name": "getCitizen",
      "outputs": [
        {
          "internalType": "string",
          "name": "",
          "type": "string"
        },
        {
          "internalType": "string",
          "name": "",
          "type": "string"
        }
      ],
      "payable": false,
      "stateMutability": "view",
      "type": "function"
    },
    {
      "constant": false,
      "inputs": [
        {
          "internalType": "address",
          "name": "receiver",
          "type": "address"
        },
        {
          "internalType": "uint256",
          "name": "amount",
          "type": "uint256"
        }
      ],
      "name": "sendCoin",
      "outputs": [
        {
          "internalType": "bool",
          "name": "sufficient",
          "type": "bool"
        }
      ],
      "payable": false,
      "stateMutability": "nonpayable",
      "type": "function"
    },
    {
      "constant": true,
      "inputs": [
        {
          "internalType": "address",
          "name": "addr",
          "type": "address"
        }
      ],
      "name": "getBalanceInEth",
      "outputs": [
        {
          "internalType": "uint256",
          "name": "",
          "type": "uint256"
        }
      ],
      "payable": false,
      "stateMutability": "view",
      "type": "function"
    },
    {
      "constant": true,
      "inputs": [
        {
          "internalType": "address",
          "name": "addr",
          "type": "address"
        }
      ],
      "name": "getBalance",
      "outputs": [
        {
          "internalType": "uint256",
          "name": "",
          "type": "uint256"
        }
      ],
      "payable": false,
      "stateMutability": "view",
      "type": "function"
    }
  ],
  "bytecode": "0x608060405234801561001057600080fd5b506127106000803273ffffffffffffffffffffffffffffffffffffffff1673ffffffffffffffffffffffffffffffffffffffff1681526020019081526020016000208190555061094d806100656000396000f3fe608060405234801561001057600080fd5b50600436106100625760003560e01c80630d1add42146100675780635528b0e3146101c35780637bd703e8146102055780638914a8a01461025d57806390b98a1114610370578063f8b2cb4f146103d6575b600080fd5b6101c16004803603606081101561007d57600080fd5b8101908080359060200190929190803590602001906401000000008111156100a457600080fd5b8201836020820111156100b657600080fd5b803590602001918460018302840111640100000000831117156100d857600080fd5b91908080601f016020809104026020016040519081016040528093929190818152602001838380828437600081840152601f19601f8201169050808301925050505050505091929192908035906020019064010000000081111561013b57600080fd5b82018360208201111561014d57600080fd5b8035906020019184600183028401116401000000008311171561016f57600080fd5b91908080601f016020809104026020016040519081016040528093929190818152602001838380828437600081840152601f19601f82011690508083019250505050505050919291929050505061042e565b005b6101ef600480360360208110156101d957600080fd5b81019080803590602001909291905050506104a9565b6040518082815260200191505060405180910390f35b6102476004803603602081101561021b57600080fd5b81019080803573ffffffffffffffffffffffffffffffffffffffff1690602001909291905050506104ca565b6040518082815260200191505060405180910390f35b6102896004803603602081101561027357600080fd5b810190808035906020019092919050505061056e565b604051808060200180602001838103835285818151815260200191508051906020019080838360005b838110156102cd5780820151818401526020810190506102b2565b50505050905090810190601f1680156102fa5780820380516001836020036101000a031916815260200191505b50838103825284818151815260200191508051906020019080838360005b83811015610333578082015181840152602081019050610318565b50505050905090810190601f1680156103605780820380516001836020036101000a031916815260200191505b5094505050505060405180910390f35b6103bc6004803603604081101561038657600080fd5b81019080803573ffffffffffffffffffffffffffffffffffffffff169060200190929190803590602001909291905050506106d2565b604051808215151515815260200191505060405180910390f35b610418600480360360208110156103ec57600080fd5b81019080803573ffffffffffffffffffffffffffffffffffffffff16906020019092919050505061082b565b6040518082815260200191505060405180910390f35b60006001600085815260200190815260200160002090508281600001908051906020019061045d929190610873565b5081816001019080519060200190610476929190610873565b50600284908060018154018082558091505090600182039060005260206000200160009091929091909150555050505050565b600281815481106104b657fe5b906000526020600020016000915090505481565b600073__ConvertLib____________________________6396e4ee3d6104ef8461082b565b60026040518363ffffffff1660e01b8152600401808381526020018281526020019250505060206040518083038186803b15801561052c57600080fd5b505af4158015610540573d6000803e3d6000fd5b505050506040513d602081101561055657600080fd5b81019080805190602001909291905050509050919050565b60608060006001600085815260200190815260200160002090508060000181600101818054600181600116156101000203166002900480601f0160208091040260200160405190810160405280929190818152602001828054600181600116156101000203166002900480156106255780601f106105fa57610100808354040283529160200191610625565b820191906000526020600020905b81548152906001019060200180831161060857829003601f168201915b50505050509150808054600181600116156101000203166002900480601f0160208091040260200160405190810160405280929190818152602001828054600181600116156101000203166002900480156106c15780601f10610696576101008083540402835291602001916106c1565b820191906000526020600020905b8154815290600101906020018083116106a457829003601f168201915b505050505090509250925050915091565b6000816000803373ffffffffffffffffffffffffffffffffffffffff1673ffffffffffffffffffffffffffffffffffffffff1681526020019081526020016000205410156107235760009050610825565b816000803373ffffffffffffffffffffffffffffffffffffffff1673ffffffffffffffffffffffffffffffffffffffff16815260200190815260200160002060008282540392505081905550816000808573ffffffffffffffffffffffffffffffffffffffff1673ffffffffffffffffffffffffffffffffffffffff168152602001908152602001600020600082825401925050819055508273ffffffffffffffffffffffffffffffffffffffff163373ffffffffffffffffffffffffffffffffffffffff167fddf252ad1be2c89b69c2b068fc378daa952ba7f163c4a11628f55a4df523b3ef846040518082815260200191505060405180910390a3600190505b92915050565b60008060008373ffffffffffffffffffffffffffffffffffffffff1673ffffffffffffffffffffffffffffffffffffffff168152602001908152602001600020549050919050565b828054600181600116156101000203166002900490600052602060002090601f016020900481019282601f106108b457805160ff19168380011785556108e2565b828001600101855582156108e2579182015b828111156108e15782518255916020019190600101906108c6565b5b5090506108ef91906108f3565b5090565b61091591905b808211156109115760008160009055506001016108f9565b5090565b9056fea265627a7a723158203d779eace9ba4f2cad119b91783f919a4cda26bd22fec5b04fae37b74f34e8cf64736f6c63430005100032",
  "source": "// SPDX-License-Identifier: MIT\npragma solidity >=0.4.25 <0.7.0;\n\nimport \"./ConvertLib.sol\";\n\n// This is just a simple example of a coin-like contract.\n// It is not standards compatible and cannot be expected to talk to other\n// coin/token contracts. If you want to create a standards-compliant\n// token, see: https://github.com/ConsenSys/Tokens. Cheers!\n\ncontract MetaCoin {\n\tmapping (address => uint) balances;\n\n\tstruct citizenInfo {\n\t\tstring name;\n\t\tstring birthdate;\n\t}\n\n\tmapping(uint256 => citizenInfo) citizens;\n\tuint256[] public citizenIds;\n\n\tevent Transfer(address indexed _from, address indexed _to, uint256 _value);\n\n\tconstructor() public {\n\t\tbalances[tx.origin] = 10000;\n\t}\n\n\tfunction registerCitizen(uint256 id, string memory name, string memory birthdate) public {\n        citizenInfo storage newCitizen = citizens[id];\n        newCitizen.name = name;\n        newCitizen.birthdate = birthdate;\n        citizenIds.push(id);\n    }\n    \n    function getCitizen(uint256 id) public view returns (string memory, string memory){\n        citizenInfo storage s = citizens[id];\n        return (s.name,s.birthdate);\n    }\n\n\tfunction sendCoin(address receiver, uint amount) public returns(bool sufficient) {\n\t\tif (balances[msg.sender] < amount) return false;\n\t\tbalances[msg.sender] -= amount;\n\t\tbalances[receiver] += amount;\n\t\temit Transfer(msg.sender, receiver, amount);\n\t\treturn true;\n\t}\n\n\tfunction getBalanceInEth(address addr) public view returns(uint){\n\t\treturn ConvertLib.convert(getBalance(addr),2);\n\t}\n\n\tfunction getBalance(address addr) public view returns(uint) {\n\t\treturn balances[addr];\n\t}\n}\n",
  "sourcePath": "/Users/gun/poc/bc/contracts/MetaCoin.sol",
  "compiler": {
    "name": "solc",
    "version": "0.5.16+commit.9c3226ce.Emscripten.clang"
  },
  "schemaVersion": "3.3.4",
  "updatedAt": "2021-03-03T08:52:44.301Z",
  "devdoc": {
    "methods": {}
  },
  "userdoc": {
    "methods": {}
  }
}